:100000000C9462000C9402040C94DB030C948A00A0
:100010000C948A000C948A000C948A000C948A0038
:100020000C948A000C948A000C948A000C948A0028
:100030000C948A000C948A000C948A000C948A0018
:100040000C9491030C948A000C945F030C94390374
:100050000C948A000C948A000C948A000C948A00F8
:100060000C948A000C948A000000000024002700F1
:100070002A0000000000250028002B0000000000DE
:1000800023002600290004040404040404040202DA
:100090000202020203030303030301020408102007
:1000A0004080010204081020010204081020000012
:1000B0000008000201000003040700000000000027
:1000C0000000470711241FBECFEFD8E0DEBFCDBF31
:1000D00011E0A0E0B1E0E6EFFFE002C005900D9274
:1000E000AE32B107D9F721E0AEE2B1E001C01D9216
:1000F000AF3FB207E1F710E0C2E6D0E004C02197BD
:10010000FE010E94F307C136D107C9F70E942904F6
:100110000C94F9070C940000AF92BF92CF92DF923B
:10012000EF92FF920F931F93CF93DF936C017B01AC
:100130008B01040F151FEB015E01AE18BF08C0173D
:10014000D10759F06991D601ED91FC910190F081B0
:10015000E02DC6010995892B79F7C501DF91CF9173
:100160001F910F91FF90EF90DF90CF90BF90AF90D5
:100170000895FC01538D448D252F30E0842F90E0AD
:10018000821B930B541710F0CF9608950197089592
:10019000FC01918D828D981761F0A28DAE0FBF2F5B
:1001A000B11D5D968C91928D9F5F9F73928F90E0B1
:1001B00008958FEF9FEF0895FC01918D828D981720
:1001C00031F0828DE80FF11D858D90E008958FEF5D
:1001D0009FEF0895FC01918D228D892F90E0805C26
:1001E0009F4F821B91098F739927089582E691E0B2
:1001F0000E94EA0021E0892B09F420E0822F089573
:1002000080E090E0892B29F00E94F60081110C9487
:1002100000000895FC01A48DA80FB92FB11DA35AA9
:10022000BF4F2C91848D90E001968F739927848F16
:10023000A689B7892C93A089B1898C918370806439
:100240008C93938D848D981306C00288F389E02DDA
:1002500080818F7D80830895EF92FF920F931F938B
:10026000CF93DF93EC0181E0888F9B8D8C8D981369
:100270001AC0E889F989808185FF15C09FB7F89475
:10028000EE89FF896083E889F989808183708064C1
:1002900080839FBF81E090E0DF91CF911F910F910C
:1002A000FF90EF900895F62E0B8D10E00F5F1F4F1B
:1002B0000F731127E02E8C8D8E110CC00FB607FC2A
:1002C000FACFE889F989808185FFF5CFCE010E94B8
:1002D0000A01F1CFEB8DEC0FFD2FF11DE35AFF4F1B
:1002E000F0829FB7F8940B8FEA89FB898081806246
:1002F000CFCFCF93DF93EC01888D8823B9F0AA8903
:10030000BB89E889F9898C9185FD03C0808186FDD0
:100310000DC00FB607FCF7CF8C9185FFF2CF80811F
:1003200085FFEDCFCE010E940A01E9CFDF91CF9189
:100330000895833081F028F4813099F08230A9F05B
:1003400008958730A9F08830C9F08430B1F48091E5
:1003500080008F7D03C0809180008F778093800024
:10036000089584B58F7784BD089584B58F7DFBCFC4
:100370008091B0008F778093B00008958091B00095
:100380008F7DF9CFCF93DF93282F30E0F901E2552D
:10039000FF4F8491F901E656FF4FD491F901EA57D6
:1003A000FF4FC491CC23A1F081110E949901EC2F41
:1003B000F0E0EE0FFF1FE458FF4FA591B491EC91D0
:1003C000ED2381E090E009F480E0DF91CF91089582
:1003D00080E090E0FACF1F93CF93DF93282F30E097
:1003E000F901E255FF4F8491F901E656FF4FD49190
:1003F000F901EA57FF4FC491CC23A9F0162F8111C0
:100400000E949901EC2FF0E0EE0FFF1FEE58FF4F16
:10041000A591B4918FB7F894EC91111108C0D095C3
:10042000DE23DC938FBFDF91CF911F910895DE2BE8
:10043000F8CFCF93DF9390E0FC01E656FF4F249175
:100440008A579F4FFC0184918823D1F090E0880F58
:10045000991FFC01E859FF4FA591B491FC01EE589A
:10046000FF4FC591D491623071F49FB7F8943C91DD
:10047000822F809583238C93E8812E2B28839FBF26
:10048000DF91CF9108958FB7F894EC912E2B2C9398
:100490008FBFF6CF3FB7F89480912F019091300134
:1004A000A0913101B091320126B5A89B05C02F3F24
:1004B00019F00196A11DB11D3FBFBA2FA92F982F8A
:1004C0008827BC01CD01620F711D811D911D42E085
:1004D000660F771F881F991F4A95D1F708950895D1
:1004E0002091570130915801409104014423F1F0CB
:1004F0008217930764F4FC01E85CFE4F21E020833F
:100500009093550180935401109205010895281786
:100510003907ACF5FC01E05CFE4F21E020839093AD
:1005200055018093540120930501089540910501E0
:10053000442399F028173907ECF4209154013091A5
:1005400055018217930734F328173907C4F4805CE8
:100550009E4F21E0FC012083E6CF8217930784F4AD
:1005600020915401309155012817390724F2821740
:1005700093072CF4885C9E4F21E0FC0120830895B2
:10058000805C9E4FF9CFCF93DF9380916001811102
:100590001EC081E08093600189E00E94C201EC01ED
:1005A00088E00E94C201880F991FC80FD91F87E0F9
:1005B0000E94C201880F991F880F991F8C0F9D1FE1
:1005C00090935A0180935901DF91CF91089581E072
:1005D00080935B01F9CF8F929F92AF92BF920F935E
:1005E0001F93CF93DF93CDB7DEB7A1970FB6F894E3
:1005F000DEBF0FBECDBF19A2423008F44AE08E0123
:100600000F5D1F4F842E912CB12CA12CA5019401BC
:100610000E949307E62FB901CA01EA3044F5E05D74
:10062000D801EE938D01232B242B252B79F790E015
:1006300080E0109769F0FD0101900020E9F7319703
:10064000AF014A1B5B0BBD0182E691E00E948C006A
:10065000A1960FB6F894DEBF0FBECDBFDF91CF914C
:100660001F910F91BF90AF909F908F900895E95C7C
:10067000D7CF1F920F920FB60F9211242F933F9353
:100680004F935F936F937F938F939F93AF93BF939A
:10069000EF93FF9382E691E00E940A01FF91EF91B0
:1006A000BF91AF919F918F917F916F915F914F918A
:1006B0003F912F910F900FBE0F901F9018951F9292
:1006C0000F920FB60F9211242F938F939F93EF9356
:1006D000FF93E0917201F09173018081E0917801C4
:1006E000F091790182FD1BC0908180917B018F5F29
:1006F0008F7320917C01821741F0E0917B01F0E043
:10070000EE59FE4F958F80937B01FF91EF919F9162
:100710008F912F910F900FBE0F901F901895808191
:10072000F4CF1F920F920FB60F9211242F933F9385
:100730008F939F93AF93BF93809134019091350134
:10074000A0913601B091370130912E0123E0230FA3
:100750002D3758F50196A11DB11D20932E018093D0
:10076000340190933501A0933601B0933701809105
:100770002F0190913001A0913101B0913201019689
:10078000A11DB11D80932F0190933001A0933101E1
:10079000B0933201BF91AF919F918F913F912F9173
:1007A0000F900FBE0F901F90189526E8230F02960A
:1007B000A11DB11DD2CF1F920F920FB60F9211241F
:1007C0002F933F934F935F936F937F938F939F9359
:1007D000AF93BF93EF93FF93E0910201F091030178
:1007E0000995FF91EF91BF91AF919F918F917F916B
:1007F0006F915F914F913F912F910F900FBE0F908E
:100800001F9018951F920F920FB60F9211242F93DD
:100810003F934F935F936F937F938F939F93AF9388
:10082000BF93EF93FF93E0910001F09101010995CF
:10083000FF91EF91BF91AF919F918F917F916F91B8
:100840005F914F913F912F910F900FBE0F901F908E
:100850001895789484B5826084BD84B5816084BD28
:1008600085B5826085BD85B5816085BD80916E004E
:10087000816080936E00109281008091810082607F
:1008800080938100809181008160809381008091BC
:1008900080008160809380008091B10084608093AB
:1008A000B1008091B00081608093B00080917A00A7
:1008B000846080937A0080917A00826080937A00CD
:1008C00080917A00816080937A0080917A008068BC
:1008D00080937A001092C100C3E061E08C2F0E94E7
:1008E0001902CF5FC730C9F762E080E00E941902A9
:1008F00062E081E00E94190283EC92E09093010192
:1009000080930001809169008C7F816080936900F1
:10091000E89A61E081E10E94190261E082E10E94AF
:10092000190261E083E10E94190261E080E10E9406
:100930001902E0917201F091730182E08083E091ED
:100940006E01F0916F011082E0917001F0917101E0
:100950008FEC808310927A01E0917601F09177011B
:1009600086E08083E0917401F0917501808180615F
:100970008083E0917401F0917501808188608083AB
:10098000E0917401F0917501808180688083E0912D
:100990007401F091750180818F7D808361E08AE030
:1009A0000E94190261E08BE00E94190261E08CE074
:1009B0000E94190261E08EE00E94190211E001E438
:1009C00088248A9433E0932EA12CB12C44E0242E69
:1009D000312C2FB7F8948091340190913501A0917A
:1009E0003601B09137012FBF2091610121110EC056
:1009F00020916001222351F080935C0190935D016E
:100A0000A0935E01B0935F011093610120915B019F
:100A10002223E9F040915C0150915D0160915E01FB
:100A200070915F01841B950BA60BB70B893C910558
:100A3000A105B10530F08091590190915A010E94B1
:100A40007002109261011092600110925B0180E0CF
:100A50000E94C2017C01C0913301892B09F48CC032
:100A600081E00E94C201892B09F483C0C111109258
:100A7000330100937C0080917A00806480937A0037
:100A800080917A0086FDFCCFA0917800809179005A
:100A9000B82F24E630E00E94D807A50194010E94F7
:100AA0007407273431050CF4BBC061E08EE00E946E
:100AB000EB0110935601C0915701D09158016C2F52
:100AC00061708CE00E94EB016C2F62708BE00E94E1
:100AD000EB016C2F64708AE00E94EB01809156015B
:100AE00081113AC08091540190915501C817D907DE
:100AF00009F42DC18091500190915101A0915201B2
:100B0000B091530140914C0150914D0160914E01C3
:100B100070914F01841B950BA60BB70B883E934039
:100B2000A105B10508F083C080914B01882309F429
:100B30007EC02FB7F8948091340190913501A09137
:100B40003601B09137012FBF80935001909351012E
:100B5000A0935201B093530180E090E0892B09F4F7
:100B600038CF0E94F600882309F433CF0E9400009A
:100B700030CFEE24E394F12CC1117BCFC3E0D0E061
:100B800061E08C2F0E94EB018E2D0E94C20160E07B
:100B90000197E9F58C2F0E94EB01109333016E0150
:100BA00023E0C21AD108F601EE0FFF1FEE0DFF1D64
:100BB000EE0FFF1FE65EFE4FC081D181CF3FDC0705
:100BC00009F457CF2E010D2E000C660877084AE075
:100BD000C301B20177FE0DC06DE282E691E00E9492
:100BE0002C0166277727CB016419750986099709B7
:100BF0004AE00E94EB0242E050E06AE271E082E6E5
:100C000091E00E948C00CE010E94700232CF8C2FA6
:100C10000E94EB012196C730D10509F0B1CFC3CFB7
:100C200060E08EE00E94EB011092560144CF1092DA
:100C30004B0110924A01E0900601F09007012091CB
:100C40000501E114F10409F472C08091480190910A
:100C50004901222361F10196909349018093480153
:100C6000109204018091480190914901B1010E94C4
:100C7000C407EC010E944A022B013C010E944A0277
:100C8000641975098609970960327E4481059105CA
:100C9000A8F3C130D10581F194F4CD2BF9F0F1E046
:100CA000EF1AF108F0920701E092060155CF1816ED
:100CB000190614F40197D0CF83E090E0CDCFC23075
:100CC000D10559F1239759F760E083E10E94EB01C8
:100CD00061E082E10E94EB0161E009C061E083E133
:100CE0000E94EB0161E082E10E94EB0160E081E1A2
:100CF0000E94EB0160E00DC061E083E10E94EB0126
:100D000060E082E10E94EB0160E081E10E94EB0182
:100D100061E080E10E94EB01C2CF60E083E10E94CC
:100D2000EB0160E082E10E94EB0161E0EECF222363
:100D300061F02196D0935801C093570180E290E072
:100D4000909307018093060107CF2197F3CF8091FD
:100D50004A01811138C02FB7F894809134019091E5
:100D60003501A0913601B09137012FBF80934C011E
:100D700090934D01A0934E01B0934F012FB7F8947B
:100D80008091340190913501A0913601B0913701E5
:100D90002FBF8093500190935101A0935201B093C3
:100DA000530110934B0110934A01109304012091B9
:100DB000050180915701909158012223C1F1805C77
:100DC0009E4FFC0110828091570190915801209113
:100DD0000501222379F19C012F5F3F4F2830310517
:100DE00064F4F901E05CFE4F40814423A9F33093A1
:100DF0005501209354011092040120915401309127
:100E000055012817390709F0A7CE019797FDA4CE01
:100E1000FC01E85CFE4F20812223B9F39093550139
:100E200080935401109204011092050195CE885CC4
:100E30009E4FC7CF9C012150310937FD0CC0F901ED
:100E4000E85CFE4F40814423B1F330935501209379
:100E5000540110920401209154013091550128173A
:100E6000390709F079CE0196883091050CF074CEDF
:100E7000FC01E05CFE4F20812223A9F390935501F1
:100E800080935401109204011093050165CEE2E6AF
:100E9000F1E01382128288EE93E0A0E0B0E0848358
:100EA0009583A683B7838CE091E09183808385EC62
:100EB00090E09587848784EC90E09787868780EC24
:100EC00090E0918B808B81EC90E0938B828B82EC15
:100ED00090E0958B848B86EC90E0978B868B118EBF
:100EE000128E138E148E0895052E97FB1EF4009417
:100EF0000E948B0757FD07D00E94930707FC03D081
:100F00004EF40C948B0750954095309521953F4FAA
:100F10004F4F5F4F089590958095709561957F4FE5
:100F20008F4F9F4F0895A1E21A2EAA1BBB1BFD01F4
:100F30000DC0AA1FBB1FEE1FFF1FA217B307E407B8
:100F4000F50720F0A21BB30BE40BF50B661F771F10
:100F5000881F991F1A9469F76095709580959095F0
:100F60009B01AC01BD01CF010895A29FB001B39FC9
:100F7000C001A39F700D811D1124911DB29F700DA2
:100F8000811D1124911D089597FB072E16F40094DE
:100F900007D077FD09D00E94DF0707FC05D03EF49B
:100FA000909581959F4F0895709561957F4F089515
:100FB0000E94B507B7FF0895821B930B0895AA1BE3
:100FC000BB1B51E107C0AA1FBB1FA617B70710F034
:100FD000A61BB70B881F991F5A95A9F78095909566
:100FE000BC01CD010895EE0FFF1F0590F491E02D97
:060FF0000994F894FFCF04
:100FF6006F026F0201012000000000002C018C002E
:10100600B9007901EA00C800DC0000000100020016
:0E101600030004000500060007000D0A00009C
:00000001FF
