:100000000C9462000C948A000C948A000C948A0070
:100010000C948A000C948A000C948A000C948A0038
:100020000C948A000C948A000C948A000C948A0028
:100030000C948A000C948A000C948A000C948A0018
:100040000C9415030C948A000C94E3020C94BD02EA
:100050000C948A000C948A000C948A000C948A00F8
:100060000C948A000C948A000000000024002700F1
:100070002A0000000000250028002B0000000000DE
:1000800023002600290004040404040404040202DA
:100090000202020203030303030301020408102007
:1000A0004080010204081020010204081020000012
:1000B0000008000201000003040700000000000027
:1000C0000000910511241FBECFEFD8E0DEBFCDBFE9
:1000D00011E0A0E0B1E0E0E2FCE002C005900D928A
:1000E000A433B107D9F721E0A4E3B1E001C01D9228
:1000F000A23EB207E1F710E0C2E6D0E004C02197CB
:10010000FE010E940806C136D107C9F70E945F03AD
:100110000C940E060C940000AF92BF92CF92DF9227
:10012000EF92FF920F931F93CF93DF936C017B01AC
:100130008B01040F151FEB015E01AE18BF08C0173D
:10014000D10759F06991D601ED91FC910190F081B0
:10015000E02DC6010995892B79F7C501DF91CF9173
:100160001F910F91FF90EF90DF90CF90BF90AF90D5
:100170000895FC01538D448D252F30E0842F90E0AD
:10018000821B930B541710F0CF9608950197089592
:10019000FC01918D828D981761F0A28DAE0FBF2F5B
:1001A000B11D5D968C91928D9F5F9F73928F90E0B1
:1001B00008958FEF9FEF0895FC01918D828D981720
:1001C00031F0828DE80FF11D858D90E008958FEF5D
:1001D0009FEF0895FC01918D228D892F90E0805C26
:1001E0009F4F821B91098F739927089585E491E0B1
:1001F0000E94EA0021E0892B09F420E0822F089573
:1002000080E090E0892B29F00E94F60081110C9487
:1002100000000895FC01A48DA80FB92FB11DA35AA9
:10022000BF4F2C91848D90E001968F739927848F16
:10023000A689B7892C93A089B1898C918370806439
:100240008C93938D848D981306C00288F389E02DDA
:1002500080818F7D80830895EF92FF920F931F938B
:10026000CF93DF93EC0181E0888F9B8D8C8D981369
:100270001AC0E889F989808185FF15C09FB7F89475
:10028000EE89FF896083E889F989808183708064C1
:1002900080839FBF81E090E0DF91CF911F910F910C
:1002A000FF90EF900895F62E0B8D10E00F5F1F4F1B
:1002B0000F731127E02E8C8D8E110CC00FB607FC2A
:1002C000FACFE889F989808185FFF5CFCE010E94B8
:1002D0000A01F1CFEB8DEC0FFD2FF11DE35AFF4F1B
:1002E000F0829FB7F8940B8FEA89FB898081806246
:1002F000CFCFCF93DF93EC01888D8823B9F0AA8903
:10030000BB89E889F9898C9185FD03C0808186FDD0
:100310000DC00FB607FCF7CF8C9185FFF2CF80811F
:1003200085FFEDCFCE010E940A01E9CFDF91CF9189
:100330000895833081F028F4813099F08230A9F05B
:1003400008958730A9F08830C9F08430B1F48091E5
:1003500080008F7D03C0809180008F778093800024
:10036000089584B58F7784BD089584B58F7DFBCFC4
:100370008091B0008F778093B00008958091B00095
:100380008F7DF9CFCF93DF93282F30E0F901E2552D
:10039000FF4F8491F901E656FF4FD491F901EA57D6
:1003A000FF4FC491CC23A1F081110E949901EC2F41
:1003B000F0E0EE0FFF1FE458FF4FA591B491EC91D0
:1003C000ED2381E090E009F480E0DF91CF91089582
:1003D00080E090E0FACF1F93CF93DF93282F30E097
:1003E000F901E255FF4F8491F901E656FF4FD49190
:1003F000F901EA57FF4FC491CC23A9F0162F8111C0
:100400000E949901EC2FF0E0EE0FFF1FEE58FF4F16
:10041000A591B4918FB7F894EC91111108C0D095C3
:10042000DE23DC938FBFDF91CF911F910895DE2BE8
:10043000F8CFCF93DF9390E0FC01E656FF4F249175
:100440008A579F4FFC0184918823D1F090E0880F58
:10045000991FFC01E859FF4FA591B491FC01EE589A
:10046000FF4FC591D491623071F49FB7F8943C91DD
:10047000822F809583238C93E8812E2B28839FBF26
:10048000DF91CF9108958FB7F894EC912E2B2C9398
:100490008FBFF6CF3FB7F8948091390190913A0120
:1004A000A0913B01B0913C0126B5A89B05C02F3F10
:1004B00019F00196A11DB11D3FBFBA2FA92F982F8A
:1004C0008827BC01CD01620F711D811D911D42E085
:1004D000660F771F881F991F4A95D1F708958F924D
:1004E0009F92AF92BF920F931F93CF93DF93CDB79D
:1004F000DEB7A1970FB6F894DEBF0FBECDBF19A22D
:10050000423008F44AE08E010F5D1F4F842E912C7B
:10051000B12CA12CA50194010E94D205E62FB901AE
:10052000CA01EA3044F5E05DD801EE938D01232B3A
:10053000242B252B79F790E080E0109769F0FD01DE
:1005400001900020E9F73197AF014A1B5B0BBD0119
:1005500085E491E00E948C00A1960FB6F894DEBF6E
:100560000FBECDBFDF91CF911F910F91BF90AF9084
:100570009F908F900895E95CD7CF1F920F920FB68E
:100580000F9211242F933F934F935F936F937F9319
:100590008F939F93AF93BF93EF93FF9385E491E085
:1005A0000E940A01FF91EF91BF91AF919F918F91AE
:1005B0007F916F915F914F913F912F910F900FBE5F
:1005C0000F901F9018951F920F920FB60F92112443
:1005D0002F938F939F93EF93FF93E0915501F091A9
:1005E00056018081E0915B01F0915C0182FD1BC0AE
:1005F000908180915E018F5F8F7320915F018217E0
:1006000041F0E0915E01F0E0EB5BFE4F958F80934F
:100610005E01FF91EF919F918F912F910F900FBEEF
:100620000F901F9018958081F4CF1F920F920FB6F4
:100630000F9211242F933F938F939F93AF93BF9368
:100640008091350190913601A0913701B091380128
:100650003091340123E0230F2D3758F50196A11D69
:10066000B11D209334018093350190933601A093FE
:100670003701B09338018091390190913A01A091EE
:100680003B01B0913C010196A11DB11D8093390140
:1006900090933A01A0933B01B0933C01BF91AF917D
:1006A0009F918F913F912F910F900FBE0F901F90B0
:1006B000189526E8230F0296A11DB11DD2CF78947C
:1006C00084B5826084BD84B5816084BD85B5826057
:1006D00085BD85B5816085BD80916E008160809308
:1006E0006E00109281008091810082608093810071
:1006F0008091810081608093810080918000816081
:10070000809380008091B10084608093B1008091DB
:10071000B00081608093B00080917A008460809303
:100720007A0080917A00826080937A0080917A00CA
:10073000816080937A0080917A00806880937A004B
:100740001092C100CEE0D0E061E0C231D1050CF0E2
:1007500062E08C2F0E9419022196C431D105A1F7C5
:1007600061E084E00E94190261E085E00E941902C4
:1007700061E086E00E94190261E081E00E941902B6
:10078000E0915501F091560182E08083E0915101A2
:10079000F09152011082E0915301F09154018FECDD
:1007A000808310925D01E0915901F0915A0186E039
:1007B0008083E0915701F0915801808180618083AE
:1007C000E0915701F0915801808188608083E09129
:1007D0005701F0915801808180688083E091570132
:1007E000F091580180818F7D808361E08AE00E94D2
:1007F000190261E08BE00E94190261E08CE00E9426
:10080000190240E0242E40E0342E82E10E94C20111
:100810008C01C0913D01892B09F46FC083E10E94D6
:10082000C201892B09F467C0C11110923D01C0912A
:100830004301D09144016C2F61708CE00E94EB0168
:100840006C2F62708BE00E94EB016C2F64708AE069
:100850000E94EB01F0904001809141019091420192
:10086000C817D90709F4E7C00091000110910101F0
:100870000115110509F4CFC080913E0190913F010F
:10088000FF2009F487C0019690933F0180933E01B9
:1008900080913E0190913F0164E070E00E94BE05AE
:1008A000EC010E944A022B013C010E944A02641999
:1008B00075098609970960327E4481059105A8F380
:1008C000C130D10509F48CC00CF06CC0CD2B09F4FB
:1008D00079C0015011091093010100930001211406
:1008E000310409F492CF0E94F600882309F48DCFD9
:1008F0000E9400008ACF01E010E0C11198CFCEE045
:10090000D0E032E1F32EF00E61E08C2F0E94EB017B
:100910008F2D0E94C20160E0019799F58C2F0E94F3
:10092000EB0181E080933D016E012EE0C21AD108F7
:10093000F601EE0FFF1FE00FF11FEE0FFF1FEC5E41
:10094000FE4F408051808FEF4816580609F46FCF54
:10095000052C000C660877084AE0C301B20177FE57
:100960000DC06DE285E491E00E942C016627772797
:10097000CB0164197509860997094AE00E946F0244
:1009800056CF8C2F0E94EB012196C231D10509F080
:10099000BBCFCECF1816190614F4019775CF83E09C
:1009A00090E072CFC230D10561F1239709F091CF69
:1009B00060E086E00E94EB0161E085E00E94EB01CF
:1009C00061E009C061E086E00E94EB0161E085E042
:1009D0000E94EB0160E084E00E94EB0160E00DC04A
:1009E00061E086E00E94EB0160E085E00E94EB019F
:1009F00060E084E00E94EB0161E081E00E94EB0195
:100A000068CF60E086E00E94EB0160E085E00E9434
:100A1000EB0161E0EECFFF2061F02196D09344011D
:100A2000C093430180E290E0909301018093000124
:100A300056CF2197F3CF0E944A024B015C0188EE0A
:100A4000482E83E0582E612C712C0E944A026819AE
:100A500079098A099B09683E734081059105A8F3CD
:100A600091E0491A51086108710828EE820E23E0CE
:100A7000921EA11CB11C411451046104710429F798
:100A8000CE01FF2031F101968830910554F4FC012C
:100A9000E45DFE4F20812223B1F3909342018093C5
:100AA00041018091410190914201C817D90709F095
:100AB00016CF2197D7FD13CFFE01EC5DFE4F80814D
:100AC0008823B9F3D0934201C093410110924001B1
:100AD00006CF019797FD0AC0FC01EC5DFE4F208117
:100AE0002223B9F390934201809341018091410107
:100AF00090914201C817D90709F0F1CE2196C8306C
:100B0000D1050CF0ECCEFE01E45DFE4F8081882320
:100B1000A9F3D0934201C093410181E08093400149
:100B2000DECEE5E4F1E01382128288EE93E0A0E0ED
:100B3000B0E084839583A683B78386E091E09183B8
:100B4000808385EC90E09587848784EC90E097879C
:100B5000868780EC90E0918B808B81EC90E0938B8A
:100B6000828B82EC90E0958B848B86EC90E0978B67
:100B7000868B118E128E138E148E089597FB072E7E
:100B800016F4009407D077FD09D00E94F40507FC05
:100B900005D03EF4909581959F4F0895709561958D
:100BA0007F4F0895A1E21A2EAA1BBB1BFD010DC0A9
:100BB000AA1FBB1FEE1FFF1FA217B307E407F5070D
:100BC00020F0A21BB30BE40BF50B661F771F881FE9
:100BD000991F1A9469F760957095809590959B017F
:100BE000AC01BD01CF010895AA1BBB1B51E107C099
:100BF000AA1FBB1FA617B70710F0A61BB70B881FAD
:100C0000991F5A95A9F780959095BC01CD0108953B
:100C1000EE0FFF1F0590F491E02D0994F894FFCF9B
:100C20002000000000002C018C00B9007901EA00CE
:100C3000C800DC0000000100020003000400050001
:100C40000600070001000000000000000000000096
:040C5000010001009E
:00000001FF
