:100000000C9462000C9402040C94DB030C948A00A0
:100010000C948A000C948A000C948A000C948A0038
:100020000C948A000C948A000C948A000C948A0028
:100030000C948A000C948A000C948A000C948A0018
:100040000C9491030C948A000C945F030C94390374
:100050000C948A000C948A000C948A000C948A00F8
:100060000C948A000C948A000000000024002700F1
:100070002A0000000000250028002B0000000000DE
:1000800023002600290004040404040404040202DA
:100090000202020203030303030301020408102007
:1000A0004080010204081020010204081020000012
:1000B0000008000201000003040700000000000027
:1000C0000000160711241FBECFEFD8E0DEBFCDBF62
:1000D00011E0A0E0B1E0EAE2FFE002C005900D927D
:1000E000AE32B107D9F721E0AEE2B1E001C01D9216
:1000F000AE3FB207E1F710E0C2E6D0E004C02197BE
:10010000FE010E948D07C136D107C9F70E9429045C
:100110000C9493070C940000AF92BF92CF92DF92A1
:10012000EF92FF920F931F93CF93DF936C017B01AC
:100130008B01040F151FEB015E01AE18BF08C0173D
:10014000D10759F06991D601ED91FC910190F081B0
:10015000E02DC6010995892B79F7C501DF91CF9173
:100160001F910F91FF90EF90DF90CF90BF90AF90D5
:100170000895FC01538D448D252F30E0842F90E0AD
:10018000821B930B541710F0CF9608950197089592
:10019000FC01918D828D981761F0A28DAE0FBF2F5B
:1001A000B11D5D968C91928D9F5F9F73928F90E0B1
:1001B00008958FEF9FEF0895FC01918D828D981720
:1001C00031F0828DE80FF11D858D90E008958FEF5D
:1001D0009FEF0895FC01918D228D892F90E0805C26
:1001E0009F4F821B91098F739927089581E691E0B3
:1001F0000E94EA0021E0892B09F420E0822F089573
:1002000080E090E0892B29F00E94F60081110C9487
:1002100000000895FC01A48DA80FB92FB11DA35AA9
:10022000BF4F2C91848D90E001968F739927848F16
:10023000A689B7892C93A089B1898C918370806439
:100240008C93938D848D981306C00288F389E02DDA
:1002500080818F7D80830895EF92FF920F931F938B
:10026000CF93DF93EC0181E0888F9B8D8C8D981369
:100270001AC0E889F989808185FF15C09FB7F89475
:10028000EE89FF896083E889F989808183708064C1
:1002900080839FBF81E090E0DF91CF911F910F910C
:1002A000FF90EF900895F62E0B8D10E00F5F1F4F1B
:1002B0000F731127E02E8C8D8E110CC00FB607FC2A
:1002C000FACFE889F989808185FFF5CFCE010E94B8
:1002D0000A01F1CFEB8DEC0FFD2FF11DE35AFF4F1B
:1002E000F0829FB7F8940B8FEA89FB898081806246
:1002F000CFCFCF93DF93EC01888D8823B9F0AA8903
:10030000BB89E889F9898C9185FD03C0808186FDD0
:100310000DC00FB607FCF7CF8C9185FFF2CF80811F
:1003200085FFEDCFCE010E940A01E9CFDF91CF9189
:100330000895833081F028F4813099F08230A9F05B
:1003400008958730A9F08830C9F08430B1F48091E5
:1003500080008F7D03C0809180008F778093800024
:10036000089584B58F7784BD089584B58F7DFBCFC4
:100370008091B0008F778093B00008958091B00095
:100380008F7DF9CFCF93DF93282F30E0F901E2552D
:10039000FF4F8491F901E656FF4FD491F901EA57D6
:1003A000FF4FC491CC23A1F081110E949901EC2F41
:1003B000F0E0EE0FFF1FE458FF4FA591B491EC91D0
:1003C000ED2381E090E009F480E0DF91CF91089582
:1003D00080E090E0FACF1F93CF93DF93282F30E097
:1003E000F901E255FF4F8491F901E656FF4FD49190
:1003F000F901EA57FF4FC491CC23A9F0162F8111C0
:100400000E949901EC2FF0E0EE0FFF1FEE58FF4F16
:10041000A591B4918FB7F894EC91111108C0D095C3
:10042000DE23DC938FBFDF91CF911F910895DE2BE8
:10043000F8CFCF93DF9390E0FC01E656FF4F249175
:100440008A579F4FFC0184918823D1F090E0880F58
:10045000991FFC01E859FF4FA591B491FC01EE589A
:10046000FF4FC591D491623071F49FB7F8943C91DD
:10047000822F809583238C93E8812E2B28839FBF26
:10048000DF91CF9108958FB7F894EC912E2B2C9398
:100490008FBFF6CF3FB7F89480912F019091300134
:1004A000A0913101B091320126B5A89B05C02F3F24
:1004B00019F00196A11DB11D3FBFBA2FA92F982F8A
:1004C0008827BC01CD01620F711D811D911D42E085
:1004D000660F771F881F991F4A95D1F708950895D1
:1004E0002091560130915701409104014423F1F0CD
:1004F0008217930764F4FC01E85CFE4F21E020833F
:100500009093550180935401109205010895281786
:100510003907ACF5FC01E05CFE4F21E020839093AD
:1005200055018093540120930501089540910501E0
:10053000442399F028173907ECF4209154013091A5
:1005400055018217930734F328173907C4F4805CE8
:100550009E4F21E0FC012083E6CF8217930784F4AD
:1005600020915401309155012817390724F2821740
:1005700093072CF4885C9E4F21E0FC0120830895B2
:10058000805C9E4FF9CFCF93DF9380915F01811103
:100590001EC081E080935F0189E00E94C201EC01EE
:1005A00088E00E94C201880F991FC80FD91F87E0F9
:1005B0000E94C201880F991F880F991F8C0F9D1FE1
:1005C0009093590180935801DF91CF91089581E074
:1005D00080935A01F9CF8F929F92AF92BF920F935F
:1005E0001F93CF93DF93CDB7DEB7A1970FB6F894E3
:1005F000DEBF0FBECDBF19A2423008F44AE08E0123
:100600000F5D1F4F842E912CB12CA12CA5019401BC
:100610000E945707E62FB901CA01EA3044F5E05DB0
:10062000D801EE938D01232B242B252B79F790E015
:1006300080E0109769F0FD0101900020E9F7319703
:10064000AF014A1B5B0BBD0181E691E00E948C006B
:10065000A1960FB6F894DEBF0FBECDBFDF91CF914C
:100660001F910F91BF90AF909F908F900895E95C7C
:10067000D7CF1F920F920FB60F9211242F933F9353
:100680004F935F936F937F938F939F93AF93BF939A
:10069000EF93FF9381E691E00E940A01FF91EF91B1
:1006A000BF91AF919F918F917F916F915F914F918A
:1006B0003F912F910F900FBE0F901F9018951F9292
:1006C0000F920FB60F9211242F938F939F93EF9356
:1006D000FF93E0917101F09172018081E0917701C7
:1006E000F091780182FD1BC0908180917A018F5F2B
:1006F0008F7320917B01821741F0E0917A01F0E045
:10070000EF59FE4F958F80937A01FF91EF919F9162
:100710008F912F910F900FBE0F901F901895808191
:10072000F4CF1F920F920FB60F9211242F933F9385
:100730008F939F93AF93BF93809134019091350134
:10074000A0913601B091370130912E0123E0230FA3
:100750002D3758F50196A11DB11D20932E018093D0
:10076000340190933501A0933601B0933701809105
:100770002F0190913001A0913101B0913201019689
:10078000A11DB11D80932F0190933001A0933101E1
:10079000B0933201BF91AF919F918F913F912F9173
:1007A0000F900FBE0F901F90189526E8230F02960A
:1007B000A11DB11DD2CF1F920F920FB60F9211241F
:1007C0002F933F934F935F936F937F938F939F9359
:1007D000AF93BF93EF93FF93E0910201F091030178
:1007E0000995FF91EF91BF91AF919F918F917F916B
:1007F0006F915F914F913F912F910F900FBE0F908E
:100800001F9018951F920F920FB60F9211242F93DD
:100810003F934F935F936F937F938F939F93AF9388
:10082000BF93EF93FF93E0910001F09101010995CF
:10083000FF91EF91BF91AF919F918F917F916F91B8
:100840005F914F913F912F910F900FBE0F901F908E
:100850001895789484B5826084BD84B5816084BD28
:1008600085B5826085BD85B5816085BD80916E004E
:10087000816080936E00109281008091810082607F
:1008800080938100809181008160809381008091BC
:1008900080008160809380008091B10084608093AB
:1008A000B1008091B00081608093B00080917A00A7
:1008B000846080937A0080917A00826080937A00CD
:1008C00080917A00816080937A0080917A008068BC
:1008D00080937A001092C100CEE0D0E061E0C23196
:1008E000D1050CF062E08C2F0E9419022196C431D0
:1008F000D105A1F783EC92E0909301018093000170
:10090000809169008C7F816080936900E89A61E042
:1009100084E00E94190261E085E00E94190261E012
:1009200086E00E94190261E081E00E941902E091D4
:100930007101F091720182E08083E0916D01F0918C
:100940006E011082E0916F01F09170018FEC808355
:1009500010927901E0917501F091760186E0808333
:10096000E0917301F0917401808180618083E09156
:100970007301F0917401808188608083E09173013C
:10098000F0917401808180688083E0917301F0911F
:10099000740180818F7D808361E08AE00E9419026A
:1009A00061E08BE00E94190261E08CE00E94190274
:1009B0005524539430E2632E712C43E0C42ED12C85
:1009C00050E0252E50E0352E2FB7F8948091340159
:1009D00090913501A0913601B09137012FBF209140
:1009E000600121110EC020915F01222351F08093FC
:1009F0005B0190935C01A0935D01B0935E01509206
:100A0000600120915A012223E9F040915B0150914D
:100A10005C0160915D0170915E01841B950BA60BDA
:100A2000B70B893C9105A105B10530F080915801C3
:100A3000909159010E9470021092600110925F0122
:100A400010925A0182E10E94C2018C01C0913301CF
:100A5000892B09F464C083E10E94C201892B09F447
:100A60005CC0C11110923301C0915601D091570161
:100A70006C2F61708CE00E94EB016C2F62708BE038
:100A80000E94EB016C2F64708AE00E94EB01809160
:100A9000540190915501C817D90709F427C18091D5
:100AA000500190915101A0915201B0915301409198
:100AB0004C0150914D0160914E0170914F01841B8A
:100AC000950BA60BB70B883E9340A105B10508F026
:100AD0007DC080914B01882309F478C02FB7F8942A
:100AE0008091340190913501A0913601B091370188
:100AF0002FBF8093500190935101A0935201B09366
:100B000053012114310409F45FCF0E94F6008823B9
:100B100009F45ACF0E94000057CF01E010E0C11144
:100B2000A3CFCEE0D0E022E1B22EB00E61E08C2F58
:100B30000E94EB018B2D0E94C20160E00197E9F554
:100B40008C2F0E94EB01509233017E012EE0E21ABD
:100B5000F108F701EE0FFF1FE00FF11FEE0FFF1F6F
:100B6000E65EFE4FC081D181CF3FDC0709F47CCF28
:100B70004E010D2E000CAA08BB084AE0C501B401C5
:100B8000B7FE0DC06DE281E691E00E942C01662760
:100B90007727CB01681979098A099B094AE00E94E5
:100BA000EB0242E050E06AE271E081E691E00E94EF
:100BB0008C00CE010E94700257CF8C2F0E94EB0157
:100BC0002196C231D10509F0B1CFC3CF10924B01AC
:100BD00010924A0100910601109107012091050130
:100BE0000115110509F474C08091480190914901E3
:100BF000222361F10196909349018093480110925C
:100C00000401809148019091490164E070E00E94E4
:100C10004307EC010E944A024B015C010E944A0218
:100C2000681979098A099B0960327E44810591051A
:100C3000A8F3C130D10589F19CF4CD2B01F101500D
:100C4000110910930701009306015BCF18161906CE
:100C500014F40197D0CFD0924901C0924801CFCF70
:100C6000C230D10559F1239751F760E086E00E9428
:100C7000EB0161E085E00E94EB0161E009C061E009
:100C800086E00E94EB0161E085E00E94EB0160E0FC
:100C900084E00E94EB0160E00DC061E086E00E940C
:100CA000EB0160E085E00E94EB0160E084E00E94DF
:100CB000EB0161E081E00E94EB01C1CF60E086E0E2
:100CC0000E94EB0160E085E00E94EB0161E0EECF65
:100CD000222351F02196D0935701C0935601709270
:100CE0000701609206010DCF2197F5CF80914A014F
:100CF000811138C02FB7F89480913401909135015B
:100D0000A0913601B09137012FBF80934C01909391
:100D10004D01A0934E01B0934F012FB7F8948091ED
:100D2000340190913501A0913601B09137012FBF68
:100D30008093500190935101A0935201B0935301BD
:100D400050924B0150924A015092040120910501AA
:100D500080915601909157012223C1F1805C9E4FF2
:100D6000FC0110828091560190915701209105015C
:100D7000222379F19C012F5F3F4F2830310564F425
:100D8000F901E05CFE4F40814423A9F33093550103
:100D90002093540110920401209154013091550187
:100DA0002817390709F0ADCE019797FDAACEFC01AF
:100DB000E85CFE4F20812223B9F390935501809384
:100DC000540110920401109205019BCE885C9E4F45
:100DD000C7CF9C012150310937FD0CC0F901E85CF7
:100DE000FE4F40814423B1F33093550120935401C9
:100DF00010920401209154013091550128173907B0
:100E000009F07FCE0196883091050CF07ACEFC0176
:100E1000E05CFE4F20812223A9F39093550180933B
:100E2000540110920401509205016BCEE1E6F1E00D
:100E30001382128288EE93E0A0E0B0E08483958371
:100E4000A683B7838CE091E09183808385EC90E06A
:100E50009587848784EC90E09787868780EC90E084
:100E6000918B808B81EC90E0938B828B82EC90E075
:100E7000958B848B86EC90E0978B868B118E128EEF
:100E8000138E148E089597FB072E16F4009407D046
:100E900077FD09D00E94790707FC05D03EF49095B4
:100EA00081959F4F0895709561957F4F0895A1E2B8
:100EB0001A2EAA1BBB1BFD010DC0AA1FBB1FEE1FD4
:100EC000FF1FA217B307E407F50720F0A21BB30B1F
:100ED000E40BF50B661F771F881F991F1A9469F79B
:100EE00060957095809590959B01AC01BD01CF01F7
:100EF0000895AA1BBB1B51E107C0AA1FBB1FA61761
:100F0000B70710F0A61BB70B881F991F5A95A9F7B2
:100F100080959095BC01CD010895EE0FFF1F0590BF
:0A0F2000F491E02D0994F894FFCF3E
:100F2A006F026F0201012000000000002C018C00FA
:100F3A00B9007901EA00C800DC00000001000200E3
:0E0F4A00030004000500060007000D0A000069
:00000001FF
