:100000000C9462000C948A000C948A000C948A0070
:100010000C948A000C948A000C948A000C948A0038
:100020000C948A000C948A000C948A000C948A0028
:100030000C948A000C948A000C948A000C948A0018
:100040000C9415030C948A000C94E3020C94BD02EA
:100050000C948A000C948A000C948A000C948A00F8
:100060000C948A000C948A000000000024002700F1
:100070002A0000000000250028002B0000000000DE
:1000800023002600290004040404040404040202DA
:100090000202020203030303030301020408102007
:1000A0004080010204081020010204081020000012
:1000B0000008000201000003040700000000000027
:1000C0000000E60411241FBECFEFD8E0DEBFCDBF95
:1000D00011E0A0E0B1E0EAECFAE002C005900D9278
:1000E000A232B107D9F721E0A2E2B1E001C01D922E
:1000F000AB3CB207E1F710E0C2E6D0E004C02197C4
:10010000FE010E945D05C136D107C9F70E945F0359
:100110000C9463050C940000AF92BF92CF92DF92D3
:10012000EF92FF920F931F93CF93DF936C017B01AC
:100130008B01040F151FEB015E01AE18BF08C0173D
:10014000D10759F06991D601ED91FC910190F081B0
:10015000E02DC6010995892B79F7C501DF91CF9173
:100160001F910F91FF90EF90DF90CF90BF90AF90D5
:100170000895FC01538D448D252F30E0842F90E0AD
:10018000821B930B541710F0CF9608950197089592
:10019000FC01918D828D981761F0A28DAE0FBF2F5B
:1001A000B11D5D968C91928D9F5F9F73928F90E0B1
:1001B00008958FEF9FEF0895FC01918D828D981720
:1001C00031F0828DE80FF11D858D90E008958FEF5D
:1001D0009FEF0895FC01918D228D892F90E0805C26
:1001E0009F4F821B91098F73992708958EE291E0AA
:1001F0000E94EA0021E0892B09F420E0822F089573
:1002000080E090E0892B29F00E94F60081110C9487
:1002100000000895FC01A48DA80FB92FB11DA35AA9
:10022000BF4F2C91848D90E001968F739927848F16
:10023000A689B7892C93A089B1898C918370806439
:100240008C93938D848D981306C00288F389E02DDA
:1002500080818F7D80830895EF92FF920F931F938B
:10026000CF93DF93EC0181E0888F9B8D8C8D981369
:100270001AC0E889F989808185FF15C09FB7F89475
:10028000EE89FF896083E889F989808183708064C1
:1002900080839FBF81E090E0DF91CF911F910F910C
:1002A000FF90EF900895F62E0B8D10E00F5F1F4F1B
:1002B0000F731127E02E8C8D8E110CC00FB607FC2A
:1002C000FACFE889F989808185FFF5CFCE010E94B8
:1002D0000A01F1CFEB8DEC0FFD2FF11DE35AFF4F1B
:1002E000F0829FB7F8940B8FEA89FB898081806246
:1002F000CFCFCF93DF93EC01888D8823B9F0AA8903
:10030000BB89E889F9898C9185FD03C0808186FDD0
:100310000DC00FB607FCF7CF8C9185FFF2CF80811F
:1003200085FFEDCFCE010E940A01E9CFDF91CF9189
:100330000895833081F028F4813099F08230A9F05B
:1003400008958730A9F08830C9F08430B1F48091E5
:1003500080008F7D03C0809180008F778093800024
:10036000089584B58F7784BD089584B58F7DFBCFC4
:100370008091B0008F778093B00008958091B00095
:100380008F7DF9CFCF93DF93282F30E0F901E2552D
:10039000FF4F8491F901E656FF4FD491F901EA57D6
:1003A000FF4FC491CC23A1F081110E949901EC2F41
:1003B000F0E0EE0FFF1FE458FF4FA591B491EC91D0
:1003C000ED2381E090E009F480E0DF91CF91089582
:1003D00080E090E0FACF1F93CF93DF93282F30E097
:1003E000F901E255FF4F8491F901E656FF4FD49190
:1003F000F901EA57FF4FC491CC23A9F0162F8111C0
:100400000E949901EC2FF0E0EE0FFF1FEE58FF4F16
:10041000A591B4918FB7F894EC91111108C0D095C3
:10042000DE23DC938FBFDF91CF911F910895DE2BE8
:10043000F8CFCF93DF9390E0FC01E656FF4F249175
:100440008A579F4FFC0184918823D1F090E0880F58
:10045000991FFC01E859FF4FA591B491FC01EE589A
:10046000FF4FC591D491623071F49FB7F8943C91DD
:10047000822F809583238C93E8812E2B28839FBF26
:10048000DF91CF9108958FB7F894EC912E2B2C9398
:100490008FBFF6CF3FB7F894809127019091280144
:1004A000A0912901B0912A0126B5A89B05C02F3F34
:1004B00019F00196A11DB11D3FBFBA2FA92F982F8A
:1004C0008827BC01CD01620F711D811D911D42E085
:1004D000660F771F881F991F4A95D1F708958F924D
:1004E0009F92AF92BF920F931F93CF93DF93CDB79D
:1004F000DEB7A1970FB6F894DEBF0FBECDBF19A22D
:10050000423008F44AE08E010F5D1F4F842E912C7B
:10051000B12CA12CA50194010E942705E62FB90159
:10052000CA01EA3044F5E05DD801EE938D01232B3A
:10053000242B252B79F790E080E0109769F0FD01DE
:1005400001900020E9F73197AF014A1B5B0BBD0119
:100550008EE291E00E948C00A1960FB6F894DEBF67
:100560000FBECDBFDF91CF911F910F91BF90AF9084
:100570009F908F900895E95CD7CF1F920F920FB68E
:100580000F9211242F933F934F935F936F937F9319
:100590008F939F93AF93BF93EF93FF938EE291E07E
:1005A0000E940A01FF91EF91BF91AF919F918F91AE
:1005B0007F916F915F914F913F912F910F900FBE5F
:1005C0000F901F9018951F920F920FB60F92112443
:1005D0002F938F939F93EF93FF93E0913E01F091C0
:1005E0003F018081E0914401F091450182FD1BC0F3
:1005F0009081809147018F5F8F732091480182170E
:1006000041F0E0914701F0E0E25DFE4F958F80936D
:100610004701FF91EF919F918F912F910F900FBE06
:100620000F901F9018958081F4CF1F920F920FB6F4
:100630000F9211242F933F938F939F93AF93BF9368
:100640008091230190912401A0912501B091260170
:100650003091220123E0230F2D3758F50196A11D7B
:10066000B11D209322018093230190932401A09334
:100670002501B09326018091270190912801A09136
:100680002901B0912A010196A11DB11D8093270176
:1006900090932801A0932901B0932A01BF91AF91B3
:1006A0009F918F913F912F910F900FBE0F901F90B0
:1006B000189526E8230F0296A11DB11DD2CF78947C
:1006C00084B5826084BD84B5816084BD85B5826057
:1006D00085BD85B5816085BD80916E008160809308
:1006E0006E00109281008091810082608093810071
:1006F0008091810081608093810080918000816081
:10070000809380008091B10084608093B1008091DB
:10071000B00081608093B00080917A008460809303
:100720007A0080917A00826080937A0080917A00CA
:10073000816080937A0080917A00806880937A004B
:100740001092C1000EE010E061E0023111050CF0E2
:1007500062E0802F0E9419020F5F1F4F04311105C4
:1007600099F761E084E00E94190261E085E00E944F
:10077000190261E086E00E94190261E081E00E94B6
:100780001902E0913E01F0913F0182E08083E09107
:100790003A01F0913B011082E0913C01F0913D0162
:1007A0008FEC808310924601E0914201F091430169
:1007B00086E08083E0914001F09141018081806179
:1007C0008083E0914001F0914101808188608083C5
:1007D000E0914001F0914101808180688083E09147
:1007E0004001F091410180818F7D808361E08AE04A
:1007F0000E94190261E08BE00E94190261E08CE026
:100800000E94190204E010E050E0A52E50E0B52E41
:1008100082E10E94C2017C01D0902B01892B09F456
:100820004AC083E10E94C201892B09F441C0D11062
:1008300010922B0161E08CE00E94EB0160E08BE004
:100840000E94EB0160E08AE00E94EB0180912C01A4
:1008500090912D01019690932D0180932C01B80168
:100860000E9413057C010E944A022B013C010E9458
:100870004A02641975098609970960327E44810528
:100880009105A8F381E0E816F10409F484C00CF0A6
:1008900061C0EF2809F471C0A114B10409F4B8CF04
:1008A0000E94F600882309F4B3CF0E940000B0CF65
:1008B000EE24E394F12CD110BDCF2EE0C22ED12C2A
:1008C00032E1732E7E0C61E08C2D0E94EB01872DAE
:1008D0000E94C20160E0019789F58C2D0E94EB0116
:1008E00081E080932B01E6012E97FE01EE0FFF1FA2
:1008F000EE0DFF1DEE0FFF1FEE5EFE4FC080D1809C
:100900002FEFC216D20609F495CF0D2C000CEE087D
:10091000FF084AE0C701B601F7FE0DC06DE28EE2A6
:1009200091E00E942C0166277727CB016C197D0985
:100930008E099F094AE00E946F027CCF8C2D0E9495
:10094000EB012FEFC21AD20A82E1C816D10409F0D6
:10095000BACFCBCF82E0E816F10471F123E0E216C2
:10096000F10409F099CF60E086E00E94EB0161E0BC
:1009700085E00E94EB0161E009C061E086E00E9431
:10098000EB0161E085E00E94EB0160E084E00E9401
:10099000EB0160E00DC061E086E00E94EB0160E0E9
:1009A00085E00E94EB0160E084E00E94EB0161E0E1
:1009B00081E00E94EB0170CF60E086E00E94EB01D5
:1009C00060E085E00E94EB0161E0EECFEEE2F1E055
:1009D0001382128288EE93E0A0E0B0E084839583D6
:1009E000A683B78384E091E09183808385EC90E0D7
:1009F0009587848784EC90E09787868780EC90E0E9
:100A0000918B808B81EC90E0938B828B82EC90E0D9
:100A1000958B848B86EC90E0978B868B118E128E53
:100A2000138E148E089597FB072E16F4009407D0AA
:100A300077FD09D00E94490507FC05D03EF490954A
:100A400081959F4F0895709561957F4F0895A1E21C
:100A50001A2EAA1BBB1BFD010DC0AA1FBB1FEE1F38
:100A6000FF1FA217B307E407F50720F0A21BB30B83
:100A7000E40BF50B661F771F881F991F1A9469F7FF
:100A800060957095809590959B01AC01BD01CF015B
:100A90000895AA1BBB1B51E107C0AA1FBB1FA617C5
:100AA000B70710F0A61BB70B881F991F5A95A9F717
:100AB00080959095BC01CD010895EE0FFF1F059024
:0A0AC000F491E02D0994F894FFCFA3
:100ACA00000000002C018C00B9007901EA00C8007E
:100ADA00DC0000000100020003000400050006001B
:020AEA00070003
:00000001FF
