:100000000C9462000C948A000C948A000C948A0070
:100010000C948A000C948A000C948A000C948A0038
:100020000C948A000C948A000C948A000C948A0028
:100030000C948A000C948A000C948A000C948A0018
:100040000C944A020C948A000C94BA020C94940208
:100050000C948A000C948A000C948A000C948A00F8
:100060000C948A000C948A000000000024002700F1
:100070002A0000000000250028002B0000000000DE
:1000800023002600290004040404040404040202DA
:100090000202020203030303030301020408102007
:1000A0004080010204081020010204081020000012
:1000B0000008000201000003040700000000000027
:1000C0000000460411241FBECFEFD8E0DEBFCDBF35
:1000D00011E0A0E0B1E0EAE3F9E002C005900D9282
:1000E000A232B107D9F721E0A2E2B1E001C01D922E
:1000F000A93CB207E1F710E0C2E6D0E004C02197C6
:10010000FE010E949504C136D107C9F70E94EC0296
:100110000C949B040C940000AF92BF92CF92DF929C
:10012000EF92FF920F931F93CF93DF936C017B01AC
:100130008B01040F151FEB015E01AE18BF08C0173D
:10014000D10759F06991D601ED91FC910190F081B0
:10015000E02DC6010995892B79F7C501DF91CF9173
:100160001F910F91FF90EF90DF90CF90BF90AF90D5
:100170000895FC01538D448D252F30E0842F90E0AD
:10018000821B930B541710F0CF9608950197089592
:10019000FC01918D828D981761F0A28DAE0FBF2F5B
:1001A000B11D5D968C91928D9F5F9F73928F90E0B1
:1001B00008958FEF9FEF0895FC01918D828D981720
:1001C00031F0828DE80FF11D858D90E008958FEF5D
:1001D0009FEF0895FC01918D228D892F90E0805C26
:1001E0009F4F821B91098F739927089583E291E0B5
:1001F0000E94EA0021E0892B09F420E0822F089573
:1002000080E090E0892B29F00E94F60081110C9487
:1002100000000895FC01A48DA80FB92FB11DA35AA9
:10022000BF4F2C91848D90E001968F739927848F16
:10023000A689B7892C93A089B1898C918370806439
:100240008C93938D848D981306C00288F389E02DDA
:1002500080818F7D80830895EF92FF920F931F938B
:10026000CF93DF93EC0181E0888F9B8D8C8D981369
:100270001AC0E889F989808185FF15C09FB7F89475
:10028000EE89FF896083E889F989808183708064C1
:1002900080839FBF81E090E0DF91CF911F910F910C
:1002A000FF90EF900895F62E0B8D10E00F5F1F4F1B
:1002B0000F731127E02E8C8D8E110CC00FB607FC2A
:1002C000FACFE889F989808185FFF5CFCE010E94B8
:1002D0000A01F1CFEB8DEC0FFD2FF11DE35AFF4F1B
:1002E000F0829FB7F8940B8FEA89FB898081806246
:1002F000CFCFCF93DF93EC01888D8823B9F0AA8903
:10030000BB89E889F9898C9185FD03C0808186FDD0
:100310000DC00FB607FCF7CF8C9185FFF2CF80811F
:1003200085FFEDCFCE010E940A01E9CFDF91CF9189
:100330000895833081F028F4813099F08230A9F05B
:1003400008958730A9F08830C9F08430B1F48091E5
:1003500080008F7D03C0809180008F778093800024
:10036000089584B58F7784BD089584B58F7DFBCFC4
:100370008091B0008F778093B00008958091B00095
:100380008F7DF9CFCF93DF93282F30E0F901E2552D
:10039000FF4F8491F901E656FF4FD491F901EA57D6
:1003A000FF4FC491CC23A1F081110E949901EC2F41
:1003B000F0E0EE0FFF1FE458FF4FA591B491EC91D0
:1003C000ED2381E090E009F480E0DF91CF91089582
:1003D00080E090E0FACF1F93CF93DF93282F30E097
:1003E000F901E255FF4F8491F901E656FF4FD49190
:1003F000F901EA57FF4FC491CC23A9F0162F8111C0
:100400000E949901EC2FF0E0EE0FFF1FEE58FF4F16
:10041000A591B4918FB7F894EC91111108C0D095C3
:10042000DE23DC938FBFDF91CF911F910895DE2BE8
:10043000F8CFCF93DF9390E0FC01E656FF4F249175
:100440008A579F4FFC0184918823D1F090E0880F58
:10045000991FFC01E859FF4FA591B491FC01EE589A
:10046000FF4FC591D491623071F49FB7F8943C91DD
:10047000822F809583238C93E8812E2B28839FBF26
:10048000DF91CF9108958FB7F894EC912E2B2C9398
:100490008FBFF6CF1F920F920FB60F9211242F939A
:1004A0003F938F939F93AF93BF938091C50190919A
:1004B000C601A091C701B091C8013091C40123E0E9
:1004C000230F2D3758F50196A11DB11D2093C401AE
:1004D0008093C5019093C601A093C701B093C80152
:1004E0008091C0019091C101A091C201B091C3015E
:1004F0000196A11DB11D8093C0019093C101A093ED
:10050000C201B093C301BF91AF919F918F913F9171
:100510002F910F900FBE0F901F90189526E8230F74
:100520000296A11DB11DD2CF1F920F920FB60F924E
:1005300011242F933F934F935F936F937F938F93E8
:100540009F93AF93BF93EF93FF9383E291E00E9459
:100550000A01FF91EF91BF91AF919F918F917F9190
:100560006F915F914F913F912F910F900FBE0F9020
:100570001F9018951F920F920FB60F9211242F9370
:100580008F939F93EF93FF93E0913301F0913401A8
:100590008081E0913901F0913A0182FD1BC0908188
:1005A00080913C018F5F8F7320913D01821741F054
:1005B000E0913C01F0E0ED5DFE4F958F80933C01B2
:1005C000FF91EF919F918F912F910F900FBE0F9000
:1005D0001F9018958081F4CFCF93DF93CDB7DEB70E
:1005E000A1970FB6F894DEBF0FBECDBF789484B547
:1005F000826084BD84B5816084BD85B5826085BD1F
:1006000085B5816085BD80916E00816080936E00AC
:10061000109281008091810082608093810080919E
:10062000810081608093810080918000816080934F
:1006300080008091B10084608093B1008091B0000F
:1006400081608093B00080917A00846080937A000A
:1006500080917A00826080937A0080917A00816034
:1006600080937A0080917A00806880937A0010925B
:10067000C1000EE010E061E0023111050CF062E013
:10068000802F0E9419020F5F1F4F0431110599F747
:10069000E0913301F091340182E08083E0912F01F9
:1006A000F09130011082E0913101F09132018FEC34
:1006B000808310923B01E0913701F091380186E090
:1006C0008083E0913501F0913601808180618083E3
:1006D000E0913501F0913601808188608083E0915E
:1006E0003501F0913601808180688083E091350189
:1006F000F091360180818F7D808361E08AE00E94E5
:10070000190261E08BE00E94190261E08CE00E9416
:1007100019024AE0442E512C612C712C50E0252EF8
:1007200050E0352E82E10E94C2017C01109122012D
:10073000892B51F183E10E94C201892B11F1111122
:100740001092220189E00E94C201682F8CE00E9471
:10075000EB0188E00E94C201682F8BE00E94EB0150
:1007600087E00E94C201682F8AE00E94EB012114F9
:100770003104C1F20E94F6008823A1F20E94000019
:10078000D1CFEE24E394F12C1111DCCF0EE010E078
:1007900022E1922E9E0C61E0802F0E94EB01892DB8
:1007A0000E94C20160E0019709F050C0802F0E94B2
:1007B000EB0181E08093220168018EE0C81AD10824
:1007C000F601EE0FFF1FEE0DFF1DEE0FFF1FEE5E99
:1007D000FE4F80809180EFEF8E169E0609F4B2CF17
:1007E000092C000CAA08BB08B7FE3AC06DE283E2F0
:1007F00091E00E942C0122273327A90128193909E9
:100800004A095B0919A28E010F5D1F4FCA01B90188
:10081000A30192010E947304605DF80162938F014D
:10082000211531054105510589F70115110509F417
:1008300089CF01900020E9F73197AF01401B510BA0
:10084000B80183E291E00E948C007CCF802F0E944F
:10085000EB010F5F1F4F0231110509F09CCFB0CFA4
:10086000A501940119A28E010F5D1F4FCA01B901A4
:10087000A30192010E947304605DF80162938F01ED
:10088000211531054105510589F7CFCFE3E2F1E0AC
:100890001382128288EE93E0A0E0B0E08483958317
:1008A000A683B78384E091E09183808385EC90E018
:1008B0009587848784EC90E09787868780EC90E02A
:1008C000918B808B81EC90E0938B828B82EC90E01B
:1008D000958B848B86EC90E0978B868B118E128E95
:1008E000138E148E0895A1E21A2EAA1BBB1BFD01C4
:1008F0000DC0AA1FBB1FEE1FFF1FA217B307E407FF
:10090000F50720F0A21BB30BE40BF50B661F771F56
:10091000881F991F1A9469F7609570958095909536
:100920009B01AC01BD01CF010895EE0FFF1F0590A3
:0A093000F491E02D0994F894FFCF34
:10093A00000000002C018C00B9007901EA00C8000F
:10094A00DC000000010002000300040005000600AC
:02095A00070094
:107E0000112484B714BE81FFF0D085E080938100F7
:107E100082E08093C00088E18093C10086E0809377
:107E2000C20080E18093C4008EE0C9D0259A86E02C
:107E300020E33CEF91E0309385002093840096BBD3
:107E4000B09BFECF1D9AA8958150A9F7CC24DD24C4
:107E500088248394B5E0AB2EA1E19A2EF3E0BF2EE7
:107E6000A2D0813461F49FD0082FAFD0023811F036
:107E7000013811F484E001C083E08DD089C08234E0
:107E800011F484E103C0853419F485E0A6D080C0E4
:107E9000853579F488D0E82EFF2485D0082F10E0AE
:107EA000102F00270E291F29000F111F8ED06801E7
:107EB0006FC0863521F484E090D080E0DECF843638
:107EC00009F040C070D06FD0082F6DD080E0C81688
:107ED00080E7D80618F4F601B7BEE895C0E0D1E017
:107EE00062D089930C17E1F7F0E0CF16F0E7DF06D8
:107EF00018F0F601B7BEE89568D007B600FCFDCFD4
:107F0000A601A0E0B1E02C9130E011968C91119780
:107F100090E0982F8827822B932B1296FA010C0160
:107F200087BEE89511244E5F5F4FF1E0A038BF0790
:107F300051F7F601A7BEE89507B600FCFDCF97BE46
:107F4000E89526C08437B1F42ED02DD0F82E2BD052
:107F50003CD0F601EF2C8F010F5F1F4F84911BD097
:107F6000EA94F801C1F70894C11CD11CFA94CF0C13
:107F7000D11C0EC0853739F428D08EE10CD085E9AC
:107F80000AD08FE07ACF813511F488E018D01DD067
:107F900080E101D065CF982F8091C00085FFFCCF94
:107FA0009093C60008958091C00087FFFCCF809118
:107FB000C00084FD01C0A8958091C6000895E0E648
:107FC000F0E098E1908380830895EDDF803219F02E
:107FD00088E0F5DFFFCF84E1DECF1F93182FE3DFCA
:107FE0001150E9F7F2DF1F91089580E0E8DFEE27F6
:047FF000FF270994CA
:027FFE00040479
:0400000300007E007B
:00000001FF
