:100000000C9462000C948A000C948A000C948A0070
:100010000C948A000C948A000C948A000C948A0038
:100020000C948A000C948A000C948A000C948A0028
:100030000C948A000C948A000C948A000C948A0018
:100040000C9415030C948A000C94E3020C94BD02EA
:100050000C948A000C948A000C948A000C948A00F8
:100060000C948A000C948A000000000024002700F1
:100070002A0000000000250028002B0000000000DE
:1000800023002600290004040404040404040202DA
:100090000202020203030303030301020408102007
:1000A0004080010204081020010204081020000012
:1000B0000008000201000003040700000000000027
:1000C00000005B0611241FBECFEFD8E0DEBFCDBF1E
:1000D00011E0A0E0B1E0E4EBFDE002C005900D927C
:1000E000AA32B107D9F721E0AAE2B1E001C01D921E
:1000F000A13FB207E1F710E0C2E6D0E004C02197CB
:10010000FE010E94D206C136D107C9F70E945F03E3
:100110000C94D8060C940000AF92BF92CF92DF925D
:10012000EF92FF920F931F93CF93DF936C017B01AC
:100130008B01040F151FEB015E01AE18BF08C0173D
:10014000D10759F06991D601ED91FC910190F081B0
:10015000E02DC6010995892B79F7C501DF91CF9173
:100160001F910F91FF90EF90DF90CF90BF90AF90D5
:100170000895FC01538D448D252F30E0842F90E0AD
:10018000821B930B541710F0CF9608950197089592
:10019000FC01918D828D981761F0A28DAE0FBF2F5B
:1001A000B11D5D968C91928D9F5F9F73928F90E0B1
:1001B00008958FEF9FEF0895FC01918D828D981720
:1001C00031F0828DE80FF11D858D90E008958FEF5D
:1001D0009FEF0895FC01918D228D892F90E0805C26
:1001E0009F4F821B91098F739927089584E591E0B1
:1001F0000E94EA0021E0892B09F420E0822F089573
:1002000080E090E0892B29F00E94F60081110C9487
:1002100000000895FC01A48DA80FB92FB11DA35AA9
:10022000BF4F2C91848D90E001968F739927848F16
:10023000A689B7892C93A089B1898C918370806439
:100240008C93938D848D981306C00288F389E02DDA
:1002500080818F7D80830895EF92FF920F931F938B
:10026000CF93DF93EC0181E0888F9B8D8C8D981369
:100270001AC0E889F989808185FF15C09FB7F89475
:10028000EE89FF896083E889F989808183708064C1
:1002900080839FBF81E090E0DF91CF911F910F910C
:1002A000FF90EF900895F62E0B8D10E00F5F1F4F1B
:1002B0000F731127E02E8C8D8E110CC00FB607FC2A
:1002C000FACFE889F989808185FFF5CFCE010E94B8
:1002D0000A01F1CFEB8DEC0FFD2FF11DE35AFF4F1B
:1002E000F0829FB7F8940B8FEA89FB898081806246
:1002F000CFCFCF93DF93EC01888D8823B9F0AA8903
:10030000BB89E889F9898C9185FD03C0808186FDD0
:100310000DC00FB607FCF7CF8C9185FFF2CF80811F
:1003200085FFEDCFCE010E940A01E9CFDF91CF9189
:100330000895833081F028F4813099F08230A9F05B
:1003400008958730A9F08830C9F08430B1F48091E5
:1003500080008F7D03C0809180008F778093800024
:10036000089584B58F7784BD089584B58F7DFBCFC4
:100370008091B0008F778093B00008958091B00095
:100380008F7DF9CFCF93DF93282F30E0F901E2552D
:10039000FF4F8491F901E656FF4FD491F901EA57D6
:1003A000FF4FC491CC23A1F081110E949901EC2F41
:1003B000F0E0EE0FFF1FE458FF4FA591B491EC91D0
:1003C000ED2381E090E009F480E0DF91CF91089582
:1003D00080E090E0FACF1F93CF93DF93282F30E097
:1003E000F901E255FF4F8491F901E656FF4FD49190
:1003F000F901EA57FF4FC491CC23A9F0162F8111C0
:100400000E949901EC2FF0E0EE0FFF1FEE58FF4F16
:10041000A591B4918FB7F894EC91111108C0D095C3
:10042000DE23DC938FBFDF91CF911F910895DE2BE8
:10043000F8CFCF93DF9390E0FC01E656FF4F249175
:100440008A579F4FFC0184918823D1F090E0880F58
:10045000991FFC01E859FF4FA591B491FC01EE589A
:10046000FF4FC591D491623071F49FB7F8943C91DD
:10047000822F809583238C93E8812E2B28839FBF26
:10048000DF91CF9108958FB7F894EC912E2B2C9398
:100490008FBFF6CF3FB7F89480912B0190912C013C
:1004A000A0912D01B0912E0126B5A89B05C02F3F2C
:1004B00019F00196A11DB11D3FBFBA2FA92F982F8A
:1004C0008827BC01CD01620F711D811D911D42E085
:1004D000660F771F881F991F4A95D1F708958F924D
:1004E0009F92AF92BF920F931F93CF93DF93CDB79D
:1004F000DEB7A1970FB6F894DEBF0FBECDBF19A22D
:10050000423008F44AE08E010F5D1F4F842E912C7B
:10051000B12CA12CA50194010E949C06E62FB901E3
:10052000CA01EA3044F5E05DD801EE938D01232B3A
:10053000242B252B79F790E080E0109769F0FD01DE
:1005400001900020E9F73197AF014A1B5B0BBD0119
:1005500084E591E00E948C00A1960FB6F894DEBF6E
:100560000FBECDBFDF91CF911F910F91BF90AF9084
:100570009F908F900895E95CD7CF1F920F920FB68E
:100580000F9211242F933F934F935F936F937F9319
:100590008F939F93AF93BF93EF93FF9384E591E085
:1005A0000E940A01FF91EF91BF91AF919F918F91AE
:1005B0007F916F915F914F913F912F910F900FBE5F
:1005C0000F901F9018951F920F920FB60F92112443
:1005D0002F938F939F93EF93FF93E0916401F0919A
:1005E00065018081E0916A01F0916B0182FD1BC081
:1005F000908180916D018F5F8F7320916E018217C2
:1006000041F0E0916D01F0E0EC5AFE4F958F809340
:100610006D01FF91EF919F918F912F910F900FBEE0
:100620000F901F9018958081F4CF1F920F920FB6F4
:100630000F9211242F933F938F939F93AF93BF9368
:100640008091300190913101A0913201B09133013C
:1006500030912A0123E0230F2D3758F50196A11D73
:10066000B11D20932A018093300190933101A09312
:100670003201B093330180912B0190912C01A09114
:100680002D01B0912E010196A11DB11D80932B016A
:1006900090932C01A0932D01B0932E01BF91AF91A7
:1006A0009F918F913F912F910F900FBE0F901F90B0
:1006B000189526E8230F0296A11DB11DD2CF78947C
:1006C00084B5826084BD84B5816084BD85B5826057
:1006D00085BD85B5816085BD80916E008160809308
:1006E0006E00109281008091810082608093810071
:1006F0008091810081608093810080918000816081
:10070000809380008091B10084608093B1008091DB
:10071000B00081608093B00080917A008460809303
:100720007A0080917A00826080937A0080917A00CA
:10073000816080937A0080917A00806880937A004B
:100740001092C100CEE0D0E061E0C231D1050CF0E2
:1007500062E08C2F0E9419022196C431D105A1F7C5
:1007600061E084E00E94190261E085E00E941902C4
:1007700061E086E00E94190261E081E00E941902B6
:10078000E0916401F091650182E08083E091600175
:10079000F09161011082E0916201F09163018FECB0
:1007A000808310926C01E0916801F091690186E00C
:1007B0008083E0916601F091670180818061808390
:1007C000E0916601F0916701808188608083E0910B
:1007D0006601F0916701808180688083E091660105
:1007E000F091670180818F7D808361E08AE00E94C3
:1007F000190261E08BE00E94190261E08CE00E9426
:10080000190230E2632E712C44E0E42EF12C53E007
:10081000C52ED12C60E0462E60E0562E82E10E946B
:10082000C2018C01C0912F01892B09F464C083E1BE
:100830000E94C201892B09F45CC0C11110922F01E2
:10084000C0915201D09153016C2F61708CE00E94D5
:10085000EB016C2F62708BE00E94EB016C2F6470D7
:100860008AE00E94EB018091500190915101C817DC
:10087000D90709F47EC180914C0190914D01A0915E
:100880004E01B0914F014091480150914901609152
:100890004A0170914B01841B950BA60BB70B883E48
:1008A0009340A105B10508F0D5C080914701882388
:1008B00009F4D0C02FB7F8948091300190913101A4
:1008C000A0913201B09133012FBF80934C019093DE
:1008D0004D01A0934E01B0934F014114510409F40E
:1008E0009DCF0E94F600882309F498CF0E94000053
:1008F00095CF01E010E0C111A3CFCEE0D0E022E11E
:10090000B22EB00E61E08C2F0E94EB018B2D0E9465
:10091000C20160E0019709F051C08C2F0E94EB01E9
:1009200081E080932F011E012EE0221A3108F1018F
:10093000EE0FFF1FE00FF11FEE0FFF1FEA5EFE4FED
:10094000C081D181CF3FDC0709F47ACF4E010D2E53
:10095000000CAA08BB084AE0C501B401B7FE0DC0EF
:100960006DE284E591E00E942C0166277727CB0198
:10097000681979098A099B094AE00E946F0242E0DE
:1009800050E066E271E084E591E00E948C00809185
:1009900000012091520130915301882341F1C21787
:1009A000D307ACF4FE01EC5CFE4F81E08083D09372
:1009B0005101C09350011092010142CF8C2F0E942F
:1009C000EB012196C231D10509F09CCFB0CF2C1795
:1009D0003D070CF035CFFE01E45CFE4F81E08083E3
:1009E000D0935101C09350018093010129CF809190
:1009F00050019091510140910101442379F02C174D
:100A00003D0704F5C817D90734F38C179D070CF080
:100A100017CFC45CDE4F81E08883E6CFC217D307CF
:100A2000B4F48C179D0754F4FE01EC5CFE4F81E09A
:100A30008083D0935101C093500102CFC817D907CA
:100A40000CF0FECECC5CDE4F81E08883F9CEC45C36
:100A5000DE4FFACF10924701109246010091020139
:100A600010910301209101010115110509F473C0D2
:100A70008091440190914501222359F10196909370
:100A800045018093440110920001809144019091AE
:100A90004501B7010E948806EC010E944A024B0101
:100AA0005C010E944A02681979098A099B0960322F
:100AB0007E4481059105A8F3C130D10589F19CF4EC
:100AC000CD2B01F101501109109303010093020194
:100AD00004CF1816190614F40197D1CFD09245010E
:100AE000C0924401D0CFC230D10559F1239751F7BC
:100AF00060E086E00E94EB0161E085E00E94EB018E
:100B000061E009C061E086E00E94EB0161E085E000
:100B10000E94EB0160E084E00E94EB0160E00DC008
:100B200061E086E00E94EB0160E085E00E94EB015D
:100B300060E084E00E94EB0161E081E00E94EB0153
:100B4000C1CF60E086E00E94EB0160E085E00E949A
:100B5000EB0161E0EECF222351F02196D0935301B7
:100B6000C09352017092030160920201B6CE2197A8
:100B7000F5CF80914601811139C02FB7F89480914B
:100B8000300190913101A0913201B09133012FBF1A
:100B90008093480190934901A0934A01B0934B017F
:100BA0002FB7F8948091300190913101A0913201DA
:100BB000B09133012FBF80934C0190934D01A093CE
:100BC0004E01B0934F0181E080934701809346012D
:100BD0008093000120910101809152019091530175
:100BE0002223C1F1845C9E4FFC011082809152014E
:100BF0009091530120910101222379F19C012F5FF3
:100C00003F4F2830310564F4F901E45CFE4F408128
:100C10004423A9F330935101209350011092000115
:100C200020915001309151012817390709F055CE14
:100C3000019797FD52CEFC01EC5CFE4F20812223F0
:100C4000B9F39093510180935001109200011092DA
:100C5000010143CE8C5C9E4FC7CF9C0121503109CE
:100C600037FD0CC0F901EC5CFE4F40814423B1F329
:100C700030935101209350011092000120915001B6
:100C8000309151012817390709F027CE0196883095
:100C900091050CF022CEFC01E45CFE4F2081222362
:100CA000A9F390935101809350011092000181E0CB
:100CB0008093010112CEE4E5F1E01382128288EE06
:100CC00093E0A0E0B0E084839583A683B78388E0B7
:100CD00091E09183808385EC90E09587848784EC14
:100CE00090E09787868780EC90E0918B808B81ECF9
:100CF00090E0938B828B82EC90E0958B848B86ECDA
:100D000090E0978B868B118E128E138E148E089521
:100D100097FB072E16F4009407D077FD09D00E94A8
:100D2000BE0607FC05D03EF4909581959F4F08952F
:100D3000709561957F4F0895A1E21A2EAA1BBB1BE7
:100D4000FD010DC0AA1FBB1FEE1FFF1FA217B30797
:100D5000E407F50720F0A21BB30BE40BF50B661FAD
:100D6000771F881F991F1A9469F760957095809571
:100D700090959B01AC01BD01CF010895AA1BBB1B3F
:100D800051E107C0AA1FBB1FA617B70710F0A61B8B
:100D9000B70B881F991F5A95A9F780959095BC01AC
:100DA000CD010895EE0FFF1F0590F491E02D0994F9
:040DB000F894FFCFE5
:100DB40001012000000000002C018C00B900790121
:100DC400EA00C800DC000000010002000300040087
:0A0DD4000500060007000D0A0000EC
:00000001FF
