:100000000C9461000C946E020C9447020C947E00D8
:100010000C947E000C947E000C947E000C947E0068
:100020000C947E000C947E000C947E000C947E0058
:100030000C947E000C947E000C947E000C947E0048
:100040000C94FD010C947E000C947E000C947E00B8
:100050000C947E000C947E000C947E000C947E0028
:100060000C947E000C947E00000000002400270009
:100070002A0000000000250028002B0000000000DE
:1000800023002600290004040404040404040202DA
:100090000202020203030303030301020408102007
:1000A0004080010204081020010204081020000012
:1000B0000008000201000003040700000000000027
:1000C000000011241FBECFEFD8E0DEBFCDBF11E08E
:1000D000A0E0B1E0ECEAFBE002C005900D92A8318F
:1000E000B107D9F721E0A8E1B1E001C01D92AC341D
:1000F000B207E1F70E9495020C94D4050C9400001D
:10010000833081F028F4813099F08230A9F008958D
:100110008730A9F08830C9F08430B1F48091800034
:100120008F7D03C0809180008F7780938000089539
:1001300084B58F7784BD089584B58F7DFBCF809182
:10014000B0008F778093B00008958091B0008F7DCC
:10015000F9CFCF93DF93282F30E0F901E255FF4F1D
:100160008491F901E656FF4FD491F901EA57FF4F08
:10017000C491CC23A1F081110E948000EC2FF0E00B
:10018000EE0FFF1FE458FF4FA591B491EC91ED23C2
:1001900081E090E009F480E0DF91CF91089580E064
:1001A00090E0FACF1F93CF93DF93282F30E0F9012F
:1001B000E255FF4F8491F901E656FF4FD491F901C2
:1001C000EA57FF4FC491CC23A9F0162F81110E944A
:1001D0008000EC2FF0E0EE0FFF1FEE58FF4FA591CF
:1001E000B4918FB7F894EC91111108C0D095DE232B
:1001F000DC938FBFDF91CF911F910895DE2BF8CF55
:10020000CF93DF9390E0FC01E656FF4F24918A578D
:100210009F4FFC0184918823D1F090E0880F991FB3
:10022000FC01E859FF4FA591B491FC01EE58FF4F36
:10023000C591D491623071F49FB7F8943C91822FAC
:10024000809583238C93E8812E2B28839FBFDF9199
:10025000CF9108958FB7F894EC912E2B2C938FBFEC
:10026000F6CF3FB7F8948091190190911A01A091AF
:100270001B01B0911C0126B5A89B05C02F3F19F0AA
:100280000196A11DB11D3FBFBA2FA92F982F882716
:10029000BC01CD01620F711D811D911D42E0660FF1
:1002A000771F881F991F4A95D1F7089508952091C7
:1002B00041013091420140910401442309F1821728
:1002C000930774F4FC01EE5DFE4F21E020839093D0
:1002D000400180933F01109205011092040108959E
:1002E000281739070CF060C0FC01E65DFE4F21E0E5
:1002F00020839093400180933F0120930501EDCF2F
:1003000040910501442369F128173907F4F420913D
:100310003F01309140018217930764F4FC01E65DD0
:10032000FE4F21E020839093400180933F01209372
:100330000501089528173907BCF5FC01E65DFE4F5D
:1003400091E09083909305010895FC01EE5DFE4FCE
:100350008217930739F580913E01882319F11082A5
:10036000089582179307D4F420913F013091400102
:100370002817390754F4FC01EE5DFE4F21E020837D
:100380009093400180933F0108958217930764F48E
:100390008E5D9E4F21E0FC0120830895FC01E65D07
:1003A000FE4FD6CF81E080830895CF93DF93809175
:1003B0004A0181111EC081E080934A0189E00E94B8
:1003C000A900EC0188E00E94A900880F991FC80FBE
:1003D000D91F87E00E94A900880F991F880F991FD5
:1003E0008C0F9D1F9093440180934301DF91CF9127
:1003F000089581E080934501F9CF1F920F920FB6C7
:100400000F9211242F933F938F939F93AF93BF939A
:1004100080911E0190911F01A0912001B0912101B6
:100420003091180123E0230F2D3758F50196A11DB7
:10043000B11D2093180180931E0190931F01A0937A
:100440002001B09321018091190190911A01A0918E
:100450001B01B0911C010196A11DB11D80931901D2
:1004600090931A01A0931B01B0931C01BF91AF910F
:100470009F918F913F912F910F900FBE0F901F90E2
:10048000189526E8230F0296A11DB11DD2CF1F9209
:100490000F920FB60F9211242F933F934F935F93B8
:1004A0006F937F938F939F93AF93BF93EF93FF933C
:1004B000E0910201F09103010995FF91EF91BF9145
:1004C000AF919F918F917F916F915F914F913F91EC
:1004D0002F910F900FBE0F901F9018951F920F92A3
:1004E0000FB60F9211242F933F934F935F936F9307
:1004F0007F938F939F93AF93BF93EF93FF93E0917D
:100500000001F09101010995FF91EF91BF91AF9129
:100510009F918F917F916F915F914F913F912F911B
:100520000F900FBE0F901F901895789484B582603D
:1005300084BD84B5816084BD85B5826085BD85B587
:10054000816085BD80916E00816080936E00109205
:100550008100809181008260809381008091810080
:100560008160809381008091800081608093800011
:100570008091B10084608093B1008091B00081606F
:100580008093B00080917A00846080937A0080919B
:100590007A00826080937A0080917A0081608093F3
:1005A0007A0080917A00806880937A001092C1006E
:1005B000C3E061E08C2F0E940001CF5FC730C9F714
:1005C00062E080E00E94000162E081E00E940001A0
:1005D00085ED91E090930101809300018091690085
:1005E0008C7F816080936900E89A61E081E10E94DC
:1005F000000161E082E10E94000161E083E10E946C
:10060000000161E080E10E94000161E08AE00E9457
:10061000000161E08BE00E94000161E08CE00E943B
:10062000000161E08EE00E94000101E488248A94C8
:1006300033E0932EA12CB12C11E040E2242E312C7A
:100640002FB7F89480911E0190911F01A091200175
:10065000B09121012FBF20914B0121110EC020919B
:100660004A01222351F08093460190934701A093C1
:100670004801B093490110934B0120914501222379
:10068000E9F0409146015091470160914801709115
:100690004901841B950BA60BB70B893C9105A1055D
:1006A000B10530F080914301909144010E945701BF
:1006B00010924B0110924A011092450180E00E9475
:1006C000A9007C01C0911D01892B09F487C081E03C
:1006D0000E94A900892B09F47EC0C11110921D014E
:1006E00000937C0080917A00806480937A008091EE
:1006F0007A0086FDFCCFA091780080917900B82F18
:1007000024E630E00E94B905A50194010E94550538
:10071000273431050CF493C061E08EE00E94D200D2
:1007200010933E01C0914101D09142016C2F617044
:100730008CE00E94D2006C2F62708BE00E94D2008D
:100740006C2F64708AE00E94D20080913F019091EA
:100750004001C817D90709F408C180913E018111F1
:1007600032C080913A0190913B01A0913C01B0913F
:100770003D014091360150913701609138017091EF
:100780003901841B950BA60BB70B883E9340A1053E
:10079000B10508F05BC080913501882309F456C08B
:1007A0002FB7F89480911E0190911F01A091200114
:1007B000B09121012FBF80933A0190933B01A09308
:1007C0003C01B0933D0180E090E0892B09F438CFE3
:1007D0000E94000035CFEE24E394F12CC11180CFAC
:1007E000C3E0D0E061E08C2F0E94D2008E2D0E94E9
:1007F000A90060E00197D9F48C2F0E94D2001093D9
:100800001D016E0123E0C21AD108F601EE0FFF1F91
:10081000EE0DFF1DEE0FFF1FE85FFE4F80819181FF
:100820008F3F980709F45CCF0E94570159CF8C2F56
:100830000E94D2002196C730D105A1F6E6CF60E034
:100840008EE00E94D20010923E016CCF10923501D2
:1008500010923401E0900601F0900701209105010B
:10086000E114F10409F473C08091320190913301D5
:10087000222369F101969093330180933201109203
:100880000401809132019091330164E070E00E9494
:10089000A505EC010E9431012B013C010E943101B0
:1008A000641975098609970960327E4481059105AE
:1008B000A8F3C130D10581F194F4CD2BF9F0F1E02A
:1008C000EF1AF108F0920701E09206017CCF1816AA
:1008D000190614F40197CFCF83E090E0CCCFC2305B
:1008E000D10559F1239759F760E083E10E94D200C6
:1008F00061E082E10E94D20061E009C061E083E131
:100900000E94D20061E082E10E94D20060E081E1B9
:100910000E94D20060E00DC061E083E10E94D2003D
:1009200060E082E10E94D20060E081E10E94D2009A
:1009300061E080E10E94D200C2CF60E083E10E94CA
:10094000D20060E082E10E94D20061E0EECF22237B
:1009500051F02196D0934201C0934101309207019A
:100960002092060130CF2197F5CF8091340181117B
:1009700038C02FB7F89480911E0190911F01A0916B
:100980002001B09121012FBF809336019093370150
:10099000A0933801B09339012FB7F89480911E01CC
:1009A00090911F01A0912001B09121012FBF809350
:1009B0003A0190933B01A0933C01B0933D01109309
:1009C00035011093340110930401209105018091A9
:1009D0004101909142012223C1F1865D9E4FFC01AD
:1009E00010828091410190914201209105012223C2
:1009F00079F19C012F5F3F4F2830310564F4F901F4
:100A0000E65DFE4F40814423A9F3309340012093DB
:100A10003F011092040120913F01309140012817BD
:100A2000390709F0D0CE019797FDCDCEFC01EE5DE0
:100A3000FE4F20812223B9F39093400180933F0120
:100A40001092040110920501BECE8E5D9E4FC7CF5D
:100A50009C012150310937FD0CC0F901EE5DFE4FBC
:100A600040814423B1F33093400120933F01109221
:100A7000040120913F01309140012817390709F006
:100A8000A2CE0196883091050CF09DCEFC01E65D6A
:100A9000FE4F20812223A9F39093400180933F01D0
:100AA00010920401109305018ECE052E97FB1EF4C3
:100AB00000940E946C0557FD07D00E94740507FC46
:100AC00003D04EF40C946C055095409530952195CB
:100AD0003F4F4F4F5F4F089590958095709561956A
:100AE0007F4F8F4F9F4F0895A1E21A2EAA1BBB1B69
:100AF000FD010DC0AA1FBB1FEE1FFF1FA217B307EA
:100B0000E407F50720F0A21BB30BE40BF50B661FFF
:100B1000771F881F991F1A9469F7609570958095C3
:100B200090959B01AC01BD01CF010895A29FB0013A
:100B3000B39FC001A39F700D811D1124911DB29F11
:100B4000700D811D1124911D089597FB072E16F439
:100B5000009407D077FD09D00E94C00507FC05D09E
:100B60003EF4909581959F4F0895709561957F4FC4
:100B700008950E949605B7FF0895821B930B089570
:100B8000AA1BBB1B51E107C0AA1FBB1FA617B707B3
:100B900010F0A61BB70B881F991F5A95A9F78095CF
:0C0BA0009095BC01CD010895F894FFCFA2
:100BAC005601560101012000000001000200030063
:080BBC0004000500060007001B
:107E0000112484B714BE81FFF0D085E080938100F7
:107E100082E08093C00088E18093C10086E0809377
:107E2000C20080E18093C4008EE0C9D0259A86E02C
:107E300020E33CEF91E0309385002093840096BBD3
:107E4000B09BFECF1D9AA8958150A9F7CC24DD24C4
:107E500088248394B5E0AB2EA1E19A2EF3E0BF2EE7
:107E6000A2D0813461F49FD0082FAFD0023811F036
:107E7000013811F484E001C083E08DD089C08234E0
:107E800011F484E103C0853419F485E0A6D080C0E4
:107E9000853579F488D0E82EFF2485D0082F10E0AE
:107EA000102F00270E291F29000F111F8ED06801E7
:107EB0006FC0863521F484E090D080E0DECF843638
:107EC00009F040C070D06FD0082F6DD080E0C81688
:107ED00080E7D80618F4F601B7BEE895C0E0D1E017
:107EE00062D089930C17E1F7F0E0CF16F0E7DF06D8
:107EF00018F0F601B7BEE89568D007B600FCFDCFD4
:107F0000A601A0E0B1E02C9130E011968C91119780
:107F100090E0982F8827822B932B1296FA010C0160
:107F200087BEE89511244E5F5F4FF1E0A038BF0790
:107F300051F7F601A7BEE89507B600FCFDCF97BE46
:107F4000E89526C08437B1F42ED02DD0F82E2BD052
:107F50003CD0F601EF2C8F010F5F1F4F84911BD097
:107F6000EA94F801C1F70894C11CD11CFA94CF0C13
:107F7000D11C0EC0853739F428D08EE10CD085E9AC
:107F80000AD08FE07ACF813511F488E018D01DD067
:107F900080E101D065CF982F8091C00085FFFCCF94
:107FA0009093C60008958091C00087FFFCCF809118
:107FB000C00084FD01C0A8958091C6000895E0E648
:107FC000F0E098E1908380830895EDDF803219F02E
:107FD00088E0F5DFFFCF84E1DECF1F93182FE3DFCA
:107FE0001150E9F7F2DF1F91089580E0E8DFEE27F6
:047FF000FF270994CA
:027FFE00040479
:0400000300007E007B
:00000001FF
